:100000000C9462000C948A000C948A000C948A0070
:100010000C948A000C948A000C948A000C948A0038
:100020000C948A000C948A000C948A000C94A3040B
:100030000C948A000C948A000C948A000C948A0018
:100040000C9401040C948A000C9471040C944B04DD
:100050000C948A000C948A000C948A000C948A00F8
:100060000C948A000C948A000000000023002600F3
:10007000290000000000240027002A0000000000E2
:10008000250028002B0004040404040404040202D4
:100090000202020203030303030301020408102007
:1000A0004080010204081020010204081020000012
:1000B0000008000201000003040700000000000027
:1000C0000000A90511241FBECFEFD8E0DEBFCDBFD1
:1000D00011E0A0E0B1E0E6E7F6E102C005900D9284
:1000E000AE3CB107D9F722E0AEECB1E001C01D9201
:1000F000A93AB207E1F710E0C2E6D0E004C02197C8
:10010000FE010E943709C136D107C9F70E943E0699
:100110000C94390B0C94000090E0FC01E255FF4F69
:100120002491FC01E656FF4F3491FC01EA57FF4F42
:10013000E491EE2309F43CC0222339F1233091F0FD
:1001400038F42130A9F0223001F584B58F7D12C03A
:10015000273091F02830A1F02430B9F4809180004C
:100160008F7D03C0809180008F77809380000DC0C9
:1001700084B58F7784BD09C08091B0008F7703C0AC
:100180008091B0008F7D8093B000F0E0EE0FFF1FF4
:10019000E458FF4FA591B4919FB7F894611104C042
:1001A0008C913095382302C0EC913E2B3C939FBF3D
:1001B0000895CF93DF9390E0FC01E656FF4F249122
:1001C000FC01EA57FF4F8491882361F190E0880F8A
:1001D000991FFC01EE58FF4FC591D491FC01E458E2
:1001E000FF4FA591B491611109C09FB7F894888120
:1001F000209582238883EC912E230BC0623061F41A
:100200009FB7F8948881322F309583238883EC91AF
:100210002E2B2C939FBF06C08FB7F894E8812E2B0E
:1002200028838FBFDF91CF9108953FB7F8948091D5
:10023000D5019091D601A091D701B091D80126B5F2
:10024000A89B05C02F3F19F00196A11DB11D3FBF0E
:10025000BA2FA92F982F8827820F911DA11DB11D9C
:10026000BC01CD0142E0660F771F881F991F4A9598
:10027000D1F708958F929F92AF92BF92CF92DF9263
:10028000EF92FF926B017C010E9415014B015C0112
:10029000C114D104E104F104F1F00E941501DC0164
:1002A000CB0188199909AA09BB09883E9340A10589
:1002B000B10570F321E0C21AD108E108F10888EE17
:1002C000880E83E0981EA11CB11CC114D104E10466
:1002D000F10419F7DDCFFF90EF90DF90CF90BF9042
:1002E000AF909F908F900895CF92DF92EF92FF9200
:1002F0000F931F93CF93DF936C017A018B01C0E0C2
:10030000D0E0CE15DF0581F0D8016D918D01D601C9
:10031000ED91FC910190F081E02DC6010995892BAA
:1003200011F02196EECF7E01C701DF91CF911F9191
:100330000F91FF90EF90DF90CF900895089580E0A7
:1003400090E00895FC01538D448D252F30E0842FDB
:1003500090E0821B930B541710F0CF9608950197ED
:100360000895FC01918D828D981761F0828DDF01D7
:10037000A80FB11D5D968C91928D9F5F9F73928F98
:1003800090E008958FEF9FEF0895FC01918D828D8D
:10039000981731F0828DE80FF11D858D90E008955A
:1003A0008FEF9FEF0895FC01918D228D892F90E0B2
:1003B000805C9F4F821B91098F739927089589ED67
:1003C00091E00E94D30121E0892B09F420E0822FE3
:1003D0000895FC01848DDF01A80FB11DA35ABF4F02
:1003E0002C91848D90E001968F739927848FA68934
:1003F000B7892C93A089B1898C91837080648C9388
:10040000938D848D981306C00288F389E02D808136
:100410008F7D80830895EF92FF920F931F93CF9368
:10042000DF93EC0181E0888F9B8D8C8D981305C044
:10043000E889F989808185FD26C0F62E0B8D10E0B4
:100440000F5F1F4F0F731127E02E8C8DE8120CC029
:100450000FB607FCFACFE889F989808185FFF5CFCF
:10046000CE010E94E901F1CF8B8DFE01E80FF11D55
:10047000E35AFF4FF0829FB7F8940B8FEA89FB890C
:10048000808180620AC09FB7F894EE89FF896083FB
:10049000E889F98980818370806480839FBF81E0CF
:1004A00090E0DF91CF911F910F91FF90EF90089511
:1004B000CF93DF93EC01888D8823C9F0EA89FB890B
:1004C000808185FD05C0A889B9898C9186FD0FC002
:1004D0000FB607FCF5CF808185FFF2CFA889B989D7
:1004E0008C9185FFEDCFCE010E94E901E7CFDF912E
:1004F000CF91089580E090E0892B29F00E94DF01E0
:1005000081110C9400000895CF92DF92EF92FF9238
:10051000CF93DF93EC01603282E078070CF03DC0AE
:1005200077FD06C0653B71052CF064EB70E002C0FE
:1005300060E070E0898128E830E06901C81AD108DC
:1005400087FDD394CC0CDD1CCC0CDD1C0D2C000CD9
:10055000EE08FF088A8128E532E0281B310987FD73
:100560003395220F331F220F331FC901330FAA0BFC
:10057000BB0B9C01AD012C193D094E095F09DB0144
:100580000E94BB0824EB30E040E050E00E9491085C
:10059000C20ED31EE41EF51EB60138813C3080F534
:1005A000298188E890E0821B910927FD9395880FA7
:1005B000991F880F991F6817790784F08A8148E589
:1005C00052E0481B510987FD5395440F551F440FB6
:1005D000551FCB01461757070CF4CA010297880F25
:1005E000991F4FB7F894232F30E0F901EE0FFF1F4A
:1005F0002E0F3F1FF901EA58FD4F928381834FBFB1
:10060000DF91CF91FF90EF90DF90CF900895892BED
:1006100079F41092800082E080938100109285002E
:1006200010928400B19A80916F00826080936F0075
:10063000089542E050E068E171E089ED91E00C94AA
:100640007401CF93DF93009779F0FC0101900020B3
:10065000E9F73197AF01481B590BBC0189ED91E0D7
:100660000E947401EC0102C0C0E0D0E00E941903B6
:100670008C0F9D1FDF91CF910895CF93DF93EC01F5
:1006800088819981009711F00E94D50919821882FA
:100690001D821C821B821A82DF91CF9108950E94D5
:1006A000240B0F931F93CF93DF93EC0188819981E3
:1006B000009729F02A813B812617370788F48B01A0
:1006C0006F5F7F4F0E945E0A009761F09983888375
:1006D0001B830A832C813D81232B11F4FC011082A2
:1006E00081E001C080E0DF91CF911F910F910895CB
:1006F000EF92FF920F931F93CF93DF93EC01198238
:1007000018821B821A821D821C826115710521F1DB
:100710008B01FB0101900020E9F731977F01E61A78
:10072000F70AB7010E945103811109C0CE01DF9180
:10073000CF911F910F91FF90EF900C943D03FD829C
:10074000EC82B80188819981DF91CF911F910F913F
:10075000FF90EF900C94320BDF91CF911F910F918E
:10076000FF90EF9008950F931F93CF93DF93EC01C9
:1007700060E088810E948C0083E090E00197F1F7AF
:1007800061E088810E948C0083E290E00197F1F79C
:1007900060E088810E948C00898190E0FC01E6562F
:1007A000FF4F6491FC01EA57FF4FE491F0E0EE0F38
:1007B000FF1FE859FF4F8591949100E412E42FE068
:1007C00030E0462F0E946405611571058105910591
:1007D00049F0DC01CB010196A11DB11DBC01CD0189
:1007E0009F7003C060E070E0CB012BE330E040E09D
:1007F00050E00E94FA08C901DF91CF911F910F913B
:1008000008951F920F920FB60F9211242F933F93CA
:100810008F939F93AF93BF938091D1019091D20119
:10082000A091D301B091D4013091D00123E0230FE6
:100830002D3720F40196A11DB11D05C026E8230F18
:100840000296A11DB11D2093D0018093D1019093F8
:10085000D201A093D301B093D4018091D50190919E
:10086000D601A091D701B091D8010196A11DB11D6B
:100870008093D5019093D601A093D701B093D8016E
:10088000BF91AF919F918F913F912F910F900FBE8C
:100890000F901F9018951F920F920FB60F92112470
:1008A0002F933F934F935F936F937F938F939F9378
:1008B000AF93BF93EF93FF9389ED91E00E94E9011D
:1008C000FF91EF91BF91AF919F918F917F916F9128
:1008D0005F914F913F912F910F900FBE0F901F90FE
:1008E00018951F920F920FB60F9211242F938F938A
:1008F0009F93EF93FF93E091E901F091EA018081EA
:10090000E091EF01F091F00182FD12C090818091A1
:10091000F2018F5F8F732091F301821751F0E09104
:10092000F201F0E0E752FE4F958F8093F20101C093
:100930008081FF91EF919F918F912F910F900FBE2A
:100940000F901F9018951F920F920FB60F921124BF
:100950002F933F934F935F936F937F938F939F93C7
:10096000AF93BF93EF93FF938091CE0187FF05C0B4
:1009700010928500109284001BC02091CE01022E9F
:10098000000C330B80919A0290E02817390784F409
:100990008091CE01082E000C990BFC01EE0FFF1F79
:1009A0008E0F9F1FFC01EA58FD4F808186FD15C008
:1009B0008091CE018F5F8093CE012091CE01022ED7
:1009C000000C330B80919A0290E028173907C4F489
:1009D0008091CE018C3064F113C08091CE01082E3D
:1009E000000C990BFC01EE0FFF1F8E0F9F1FFC01E7
:1009F000EA58FD4F808160E08F730E948C00D8CF51
:100A00008091840090918500049680349C4918F46C
:100A100080E49CE905C08091840090918500049653
:100A200090938900809388008FEF8093CE013BC024
:100A300020918400309185008091CE01082E000C19
:100A4000990BFC01EE0FFF1F8E0F9F1FFC01EA5850
:100A5000FD4F81819281820F931F90938900809333
:100A600088008091CE01082E000C990BFC01EE0F3E
:100A7000FF1F8E0F9F1FFC01EA58FD4F808186FFEC
:100A800012C08091CE01082E000C990BFC01EE0FD4
:100A9000FF1F8E0F9F1FFC01EA58FD4F808161E010
:100AA0008F730E948C00FF91EF91BF91AF919F9146
:100AB0008F917F916F915F914F913F912F910F9007
:100AC0000FBE0F901F901895CF92DF92EF92FF927A
:100AD0000F931F93E82FF92F05C001501109210929
:100AE000310961F1908196239417B9F305C0015043
:100AF00011092109310911F1908196239413F7CF3F
:100B0000C12CD12CE12CF12C0AC08FEFC81AD80AC5
:100B1000E80AF80A0C151D052E053F0579F08081BD
:100B20008623841791F36C2D7D2D8E2D9F2D1F9183
:100B30000F91FF90EF90DF90CF90089560E070E00C
:100B400080E090E01F910F91FF90EF90DF90CF90A9
:100B500008951092DC011092DB0188EE93E0A0E092
:100B6000B0E08093DD019093DE01A093DF01B093AC
:100B7000E0018AE091E09093DA018093D90185EC5D
:100B800090E09093E6018093E50184EC90E09093EF
:100B9000E8018093E70180EC90E09093EA01809374
:100BA000E90181EC90E09093EC018093EB0182EC01
:100BB00090E09093EE018093ED0186EC90E09093AD
:100BC000F0018093EF011092F2011092F301109264
:100BD000F4011092F50161E084E00E94D90060E028
:100BE00085E00E94D90084E08093A30285E0809391
:100BF000A40261E082E00E94D90060E083E00E94EC
:100C0000D90082E08093A10283E08093A2028091C8
:100C10009A028C30A0F491E0980F90939A028093FE
:100C20009E0290E0FC01EE0FFF1F8E0F9F1FFC0144
:100C3000EA58FD4F88EB9BE09283818303C08FEFDE
:100C400080939E0280919A028C30A0F491E0980FDC
:100C500090939A0280939B0290E0FC01EE0FFF1F9D
:100C60008E0F9F1FFC01EA58FD4F88EB9BE092839B
:100C7000818308958FEF80939B020895CF93DF9334
:100C8000CDB7DEB769970FB6F894DEBF0FBECDBF04
:100C9000789484B5826084BD84B5816084BD85B557
:100CA000826085BD85B5816085BD80916E00816063
:100CB00080936E0010928100809181008260809309
:100CC000810080918100816080938100809180000B
:100CD0008160809380008091B10084608093B10036
:100CE0008091B00081608093B00080917A00846030
:100CF00080937A0080917A00826080937A0080915C
:100D00007A00816080937A0080917A008068809375
:100D10007A001092C100E091E901F091EA0182E0CD
:100D20008083E091E501F091E6011082E091E70116
:100D3000F091E8018FEC80831092F101E091ED01D8
:100D4000F091EE0186E08083E091EB01F091EC01FF
:100D5000808180618083E091EB01F091EC018081E2
:100D600088608083E091EB01F091EC0180818068E4
:100D70008083E091EB01F091EC0180818F7D808395
:100D800080919E028C3008F043C061E089E00E94AF
:100D9000D90080919E02E82FF0E09F01220F331FBF
:100DA000E20FF31FEA58FD4F9081907C9960908389
:100DB00010929F021092A0026CE00E942B099CE00E
:100DC000899FB001112440E050E09B01240F351FA2
:100DD000F901EE0FFF1F2E0F3F1FF901EA58FD4FDB
:100DE000908196FD08C04F5F5F4F4C30510569F709
:100DF00090E00E940703E0919E02F0E0CF01880F8F
:100E0000991FE80FF91FEA58FD4F808180648083A5
:100E100080919B028C3008F043C061E08CE00E941E
:100E2000D90080919B02E82FF0E09F01220F331F31
:100E3000E20FF31FEA58FD4F9081907C9C609083F5
:100E400010929C0210929D026CE00E942B099CE083
:100E5000899FB001112440E050E09B01240F351F11
:100E6000F901EE0FFF1F2E0F3F1FF901EA58FD4F4A
:100E7000908196FD08C04F5F5F4F4C30510569F778
:100E800090E00E940703E0919B02F0E0CF01880F01
:100E9000991FE80FF91FEA58FD4F80818064808315
:100EA0008E010F5F1F4FBB24B39460ED77E080E0AD
:100EB00090E00E943A016BE171E0CE0108960E9439
:100EC000780383EA92E00E94B3034C016FE171E082
:100ED000CE0144960E9478031F861E86198A188ABE
:100EE0001B8A1A8AEC88FD88E114F104A9F0C88CE9
:100EF000D98CB601CE010E960E945103811105C016
:100F0000CE010E960E943D0307C0DB8ACA8AB70154
:100F10008E859F850E94320B4AE0B801C4010E9471
:100F20006708F80101900020E9F73197E01BF10B09
:100F3000D9F0EA88FB88EE0EFF1EB701CE010E96AF
:100F40000E945103882361F02E853F858A899B8901
:100F5000B801820F931F0E94320BFB8AEA8A04C0F9
:100F6000CE010E960E943D038C859D85C884D98450
:100F7000C114D10409F4A6C00097B9F0EA88FB882F
:100F8000E80EF91EB701CE010E960E945103882388
:100F900009F498C02E853F858A899B89B601820F06
:100FA000931F0E94320BFB8AEA8A4A895B896E850D
:100FB0007F8589ED91E00E9474010E9419038E855E
:100FC0009F850E94D5098C899D890E94D5098885B5
:100FD00099850E94D50960ED77E080E090E00E945D
:100FE0003A018091CF01882319F0813069F167C0FF
:100FF00083EA92E00E94B303449788F4B092CF0151
:1010000068EE73E080E090E00E943A018BE291E0AC
:101010000E94210360E070E08EE992E012C082E35A
:1010200091E00E9421038AE191E00E9421036AE598
:1010300070E08EE992E00E9484026AE570E08BE93C
:1010400092E00E9484023BC081EA92E00E94B303D6
:101050004F97B8F089E491E00E94210360E070E0CE
:101060008BE992E00E94840281E691E00E942103D4
:1010700060E777E180E090E00E943A0188E791E044
:1010800016C08BE891E00E94210364EB70E08BE9CD
:1010900092E00E94840283EA91E00E94210368EBBF
:1010A0007BE080E090E00E943A018AEB91E00E94B0
:1010B00021038AE191E00E9421031092CF010E9456
:1010C0007A02F3CECE010E960E943D036ECFBB276F
:1010D000FB015527AA27880F991FAA1FA41710F0F4
:1010E000A41B83955051B9F7A05DAA3308F0A95D00
:1010F000A193009779F7B111B1931192CB010C94A0
:101100008108DC01FC01672F71917723E1F73297A9
:1011100004C07C916D9370836291AE17BF07C8F3D2
:101120000895052E97FB1EF400940E94A80857FD11
:1011300007D00E94FA0807FC03D04EF40C94A808CC
:1011400050954095309521953F4F4F4F5F4F0895F3
:1011500090958095709561957F4F8F4F9F4F089523
:101160000E941C09A59F900DB49F900DA49F800D17
:10117000911D11240895B7FF0C94B0080E94B00887
:10118000821B930B08952F923F924F925F926F9222
:101190007F928F929F92AF92BF92CF92DF92EF9207
:1011A000FF920F931F93CF93DF93CDB7DEB7CA1B88
:1011B000DB0B0FB6F894DEBF0FBECDBF09942A88B3
:1011C000398848885F846E847D848C849B84AA845B
:1011D000B984C884DF80EE80FD800C811B81AA81E8
:1011E000B981CE0FD11D0FB6F894DEBF0FBECDBFB3
:1011F000ED010895A1E21A2EAA1BBB1BFD010DC033
:10120000AA1FBB1FEE1FFF1FA217B307E407F507B6
:1012100020F0A21BB30BE40BF50B661F771F881F92
:10122000991F1A9469F760957095809590959B0128
:10123000AC01BD01CF010895A29FB001B39FC001D1
:10124000A39F700D811D1124911DB29F700D811DF2
:101250001124911D0895991B79E004C0991F9617D8
:1012600008F0961B881F7A95C9F780950895EE0FB0
:10127000FF1F0590F491E02D09940F931F93CF93D6
:10128000DF938230910510F482E090E0E091A702B4
:10129000F091A80220E030E0A0E0B0E0309719F132
:1012A000408151810281138148175907C8F0841782
:1012B000950769F4109731F012960C9312971396D4
:1012C0001C9327C00093A7021093A80222C02115E7
:1012D000310519F04217530718F49A01BD01EF01C7
:1012E000DF01F801DBCF21153105F9F0281B390B9F
:1012F0002430310580F48A819B816115710521F0CC
:10130000FB019383828304C09093A8028093A70279
:10131000FE01329644C0FE01E20FF31F81939193C8
:1013200022503109398328833AC02091A502309197
:10133000A602232B41F42091020130910301309346
:10134000A6022093A50220910001309101012115F0
:10135000310541F42DB73EB740910401509105018C
:10136000241B350BE091A502F091A602E217F307CA
:10137000A0F42E1B3F0B2817390778F0AC014E5F05
:101380005F4F2417350748F04E0F5F1F5093A6029A
:101390004093A5028193919302C0E0E0F0E0CF0179
:1013A000DF91CF911F910F910895CF93DF93009715
:1013B00009F481C0FC01329713821282A091A70226
:1013C000B091A802109781F420813181820F931F80
:1013D0002091A5023091A6022817390751F5F09304
:1013E000A602E093A50267C0ED0120E030E0CE1731
:1013F000DF0740F44A815B819E0141155105F1F000
:10140000EA01F5CFD383C28340815181840F951FB8
:10141000C817D90759F488819981840F951F0296BE
:10142000918380838A819B819383828321153105F7
:1014300029F4F093A802E093A7023DC0E901FB83E1
:10144000EA8349915991C40FD51FEC17FD0761F448
:1014500080819181840F951F0296E9019983888389
:10146000828193819B838A83E0E0F0E012968D91E4
:101470009C911397009719F0FD01DC01F7CF8D9136
:101480009C9111979D012E5F3F4F820F931F2091DA
:10149000A5023091A6022817390769F4309729F47C
:1014A0001092A8021092A70202C013821282B09377
:1014B000A602A093A502DF91CF910895A0E0B0E02D
:1014C000E4E6FAE00C94C708EC01009721F4CB01A4
:1014D0000E943D09B4C0FC01E60FF71F9C01225099
:1014E0003109E217F30708F4A8C0D9010D911C9146
:1014F000119706171707B0F00530110508F49BC0C7
:10150000C80104978617970708F495C0025011097F
:10151000061B170B019311936D937C93CF010E94CF
:10152000D50989C05B01A01AB10A4C01800E911E39
:10153000A091A702B091A802612C712CE12CF12C92
:10154000109709F446C08D919C911197A815B90583
:10155000B1F56C0142E0C40ED11CCA14DB0478F171
:101560004C018A189B08640142E0C40ED11C1296FB
:10157000BC9012971396AC91B5E0CB16D10440F015
:10158000B282A38391828082D9016D937C9309C03A
:101590000E5F1F4F800F911FF90191838083EB2D08
:1015A000FA2FE114F10431F0D7011396FC93EE9376
:1015B000129741C0F093A802E093A7023CC06816BE
:1015C000790608F43C017D0112960D90BC91A02D86
:1015D000B7CF8091A5029091A60288169906E1F4F2
:1015E00066167706C8F4809100019091010100977A
:1015F00041F48DB79EB74091040150910501841BC1
:10160000950BE817F907C8F4F093A602E093A5023A
:10161000F901718360830FC0CB010E943D097C01F9
:10162000009759F0A801BE010E94290BCE010E942B
:10163000D509C70104C0CE0102C080E090E0CDB75B
:10164000DEB7EEE00C94E30881E090E0F8940C94AF
:10165000390BFB01DC0102C001900D92415050405A
:10166000D8F70895FB01DC0101900D920020E1F70D
:061670000895F894FFCF7D
:101676000000A9028000000000000B027401A20114
:101686005802D301B101C5010D0A00206D6D004459
:10169600697374616E6369613A20004C69676164BD
:1016A6006F004170726F78696D652D73652070618A
:1016B6007261206C6967617200436166C3A9204C40
:1016C6006F6E676F2073656C6563696F6E61646FBB
:1016D60000436166C3A9204C6F6E676F20656D205D
:1016E6007072657061726F00436166C3A9204C6FAA
:1016F6006E676F2070726F6E746F00436166C3A968
:1017060020437572746F2073656C6563696F6E61D3
:10171600646F00436166C3A920437572746F2065C8
:101726006D207072657061726F00436166C3A92097
:0E173600437572746F2070726F6E746F0000D6
:00000001FF
