:100000000C9467000C948F000C948F000C948F005C
:100010000C948F000C948F000C948F000C948F0024
:100020000C948F000C948F000C948F000C948F0014
:100030000C948F000C948F000C948F000C948F0004
:100040000C945F050C948F000C94CF050C94A905BB
:100050000C948F000C948F000C948F000C948F00E4
:100060000C948F000C948F0017073C07520763070E
:10007000740785079907AD07BA0700000000240040
:1000800027002A0000000000250028002B0004049F
:100090000404040404040202020202020303030330
:1000A000030301020408102040800102040810200C
:1000B00001020408102000000008000201000003F3
:1000C000040700000000000000000106EB071124F7
:1000D0001FBECFEFD8E0DEBFCDBF12E0A0E0B1E0A1
:1000E000E0E1F7E102C005900D92AC34B107D9F719
:1000F00023E0ACE4B2E001C01D92A530B207E1F705
:1001000010E0C6E6D0E004C02197FE010E94680915
:10011000C536D107C9F70E9439060C947B0B0C94A5
:10012000000090E0FC01EA54FF4F2491FC01EE55E1
:10013000FF4F3491FC01E257FF4FE491EE2309F4A5
:100140003CC0222339F1233091F038F42130A9F05A
:10015000223001F584B58F7D12C0273091F0283010
:10016000A1F02430B9F4809180008F7D03C080918C
:1001700080008F77809380000DC084B58F7784BD19
:1001800009C08091B0008F7703C08091B0008F7D4F
:100190008093B000F0E0EE0FFF1FEC57FF4FA591EA
:1001A000B4919FB7F894611104C08C9130953823B5
:1001B00002C0EC913E2B3C939FBF08953FB7F8944B
:1001C00080914E0290914F02A0915002B091510245
:1001D00026B5A89B05C02F3F19F00196A11DB11DA2
:1001E0003FBFBA2FA92F982F8827820F911DA11DDD
:1001F000B11DBC01CD0142E0660F771F881F991F1A
:100200004A95D1F708958F929F92AF92BF92CF9265
:10021000DF92EF92FF926B017C010E94DE004B01A6
:100220005C01C114D104E104F104F1F00E94DE008C
:10023000DC01CB0188199909AA09BB09883E9340C2
:10024000A105B10570F321E0C21AD108E108F10857
:1002500088EE880E83E0981EA11CB11CC114D10445
:10026000E104F10419F7DDCFFF90EF90DF90CF901C
:10027000BF90AF909F908F9008950895CF92DF9296
:10028000EF92FF920F931F93CF93DF936C017A014C
:100290008B01C0E0D0E0CE15DF0581F0D8016D9173
:1002A0008D01D601ED91FC910190F081E02DC60108
:1002B0000995892B11F02196EECF7E01C701DF91C0
:1002C000CF911F910F91FF90EF90DF90CF90089505
:1002D00080E090E00895FC01538D448D252F30E09F
:1002E000842F90E0821B930B541710F0CF96089543
:1002F00001970895FC01918D828D981761F0828D90
:10030000DF01A80FB11D5D968C91928D9F5F9F7349
:10031000928F90E008958FEF9FEF08952FB7F89494
:100320008091540290915502A0915602B0915702CB
:100330002FBF8093600290936102A0936202B093FA
:10034000630288E592E00E947A0197FF26C02FB7EA
:10035000F8948091540290915502A0915602B09168
:1003600057022FBF4091600250916102609162027A
:1003700070916302841B950BA60BB70B40915C0236
:1003800050915D0260915E0270915F028417950743
:10039000A607B707B0F28FEF9FEF0895FC01918D8C
:1003A000828D981731F0828DE80FF11D858D90E0D8
:1003B00008958FEF9FEF0895FC01918D228D892F75
:1003C00090E0805C9F4F821B91098F73992708955D
:1003D00088E592E00E94DC0121E0892B09F420E00D
:1003E000822F0895FC01848DDF01A80FB11DA35A4F
:1003F000BF4F2C91848D90E001968F739927848F45
:10040000A689B7892C93A089B1898C918370806467
:100410008C93938D848D981306C00288F389E02D08
:1004200080818F7D80830895EF92FF920F931F93B9
:10043000CF93DF93EC0181E0888F9B8D8C8D981397
:1004400005C0E889F989808185FD26C0F62E0B8DCF
:1004500010E00F5F1F4F0F731127E02E8C8DE812F5
:100460000CC00FB607FCFACFE889F989808185FFB7
:10047000F5CFCE010E94F201F1CF8B8DFE01E80F86
:10048000F11DE35AFF4FF0829FB7F8940B8FEA8972
:10049000FB89808180620AC09FB7F894EE89FF894A
:1004A0006083E889F98980818370806480839FBF3D
:1004B00081E090E0DF91CF911F910F91FF90EF903D
:1004C0000895CF93DF93EC01888D8823C9F0EA89E2
:1004D000FB89808185FD05C0A889B9898C9186FD3D
:1004E0000FC00FB607FCF5CF808185FFF2CFA8893A
:1004F000B9898C9185FFEDCFCE010E94F201E7CF43
:10050000DF91CF91089580E090E0892B29F00E943F
:10051000E80181110C9400000895CF92DF92EF92D0
:10052000FF920F931F93CF93DF938B01C0E0D0E036
:100530006C01990FEE08FF08C017D10714F561E0B0
:1005400088E00E94910061E089E00E94910061E0F2
:100550008AE00E949100C701B6010E94030160E099
:1005600088E00E94910060E089E00E94910060E0D4
:100570008AE00E949100C701B6010E940301219602
:10058000DBCFDF91CF911F910F91FF90EF90DF9024
:10059000CF900895CF93DF93009779F0FC010190FD
:1005A0000020E9F73197AF01481B590BBC0188E5E2
:1005B00092E00E943E01EC0102C0C0E0D0E042E0C7
:1005C00050E06CE171E088E592E00E943E018C0F02
:1005D0009D1FDF91CF910895CF93DF93EC01888128
:1005E0009981009711F00E94060A198218821D82D3
:1005F0001C821B821A82DF91CF910895EF92FF92A5
:100600000F931F93CF93DF9322E08B3F920741F12B
:100610002091FF0230910003FC0144815581241791
:100620003507E1F4232BE1F00091FB021091FC026D
:10063000C081D181F80181918F01882389F0082E32
:10064000000C990B0E945A0B7C018991082E000C1A
:10065000990B0E945A0BE816F90661F380E001C07D
:1006600081E0DF91CF911F910F91FF90EF9008955E
:100670002091FF02309100038091F9029091FA02DB
:100680002817390731F58091FB029091FC026091A7
:10069000F5027091F602009719F061157105A1F449
:1006A0006115710549F0232BB1F0FB01808190E0C9
:1006B0009195819591090AC0009769F0232B59F013
:1006C000FC01808190E002C00E946B0B21E0892B2D
:1006D00019F020E001C021E0822F08950E94550BFF
:1006E0000F931F93CF93DF93EC018881998100973B
:1006F00029F02A813B812617370788F48B016F5F29
:100700007F4F0E948F0A009761F0998388831B8333
:100710000A832C813D81232B11F4FC01108281E09E
:1007200001C080E0DF91CF911F910F910895EF926A
:10073000FF920F931F93CF93DF93EC017B018A010C
:10074000BA010E947003811104C0CE010E94EC0224
:1007500007C01D830C83B701888199810E94740BA7
:10076000CE01DF91CF911F910F91FF90EF900895EF
:100770002F923F924F925F926F927F928F929F92B1
:10078000AF92BF92CF92DF92EF92FF920F931F939F
:10079000CF93DF93CDB7DEB72E970FB6F894DEBFB9
:1007A0000FBECDBF4C016DB67EB6880F991F2DB719
:1007B0003EB7281B390B0FB6F8943EBF0FBE2DBFB6
:1007C0008DB79EB701965C017C0100E010E033E03C
:1007D000232E312C412C512C0815190594F40E941C
:1007E0004208A20191010E94CE08DC01CB010196D2
:1007F000A11DB11DF701819391937F010F5F1F4FE1
:10080000EBCF40E050E06EE171E085EF92E00E94B6
:100810009703C12CD12C9E012F5F3F4F7901C81443
:10082000D9040CF094C0F501019111915F0110936E
:100830005302009352020130110569F461E088E02F
:100840000E94910068EE73E080E090E00E94030156
:1008500060E088E01FC00230110569F461E089E0C2
:100860000E94910068EE73E080E090E00E94030136
:1008700060E089E00FC003301105A1F461E08AE077
:100880000E94910068EE73E080E090E00E94030116
:1008900060E08AE00E94910068EE73E080E090E002
:1008A0000E9403011A8619861C861B861E861D86D9
:1008B0006091F5027091F6026115710541F0409169
:1008C000F9025091FA02CE0109960E9497034AE07C
:1008D000B701C8010E949908F70101900020E9F7CB
:1008E0003197EE19FF09D9F00D851E850E0F1F1FD8
:1008F000B801CE0109960E947003882361F0298512
:100900003A858D859E85B701820F931F0E94740BD7
:100910001E870D8704C0CE0109960E94EC026985EE
:100920007A856115710539F04D855E8585EF92E018
:100930000E94970304C085EF92E00E94EC02898533
:100940009A850E94060AFFEFCF1ADF0A68CF0FB61A
:10095000F8947EBE0FBE6DBE2E960FB6F894DEBF25
:100960000FBECDBFDF91CF911F910F91FF90EF9000
:10097000DF90CF90BF90AF909F908F907F906F90BF
:100980005F904F903F902F900895FC01118210824C
:1009900013821282158214826115710551F0FB01D8
:1009A00001900020E9F73197AF01461B570B0C94DB
:1009B000970308950F931F93CF93DF93CDB7DEB7BF
:1009C00028970FB6F894DEBF0FBECDBF8FE191E040
:1009D0000E94CA0288E592E00E94DC01892BD1F3D3
:1009E00088E592E00E94DC01892B09F45DC06EE18C
:1009F00071E0CE0101960E94C5040E948E0197FD10
:100A00001BC08F8318860D811E810F5F1F4FB80199
:100A1000CE0101960E947003882379F329813A81DF
:100A20008D819E81BE01695F7F4F820F931F0E945F
:100A3000740B1E830D83E1CF8091FB029091FC0229
:100A4000009739F069817A8161157105D9F40E94A6
:100A5000060A89819A819093FC028093FB028B8124
:100A60009C819093FE028093FD028D819E819093E4
:100A700000038093FF021A82198289819A810E9461
:100A8000060A12C04091FD025091FE022D813E8166
:100A900042175307E0F20E94740B8D819E81909360
:100AA00000038093FF02E9CF28960FB6F894DEBFCB
:100AB0000FBECDBFDF91CF911F910F9108951F926F
:100AC0000F920FB60F9211242F933F938F939F9302
:100AD000AF93BF938091540290915502A09156021A
:100AE000B091570230914D0223E0230F2D3720F4AF
:100AF0000196A11DB11D05C026E8230F0296A11D78
:100B0000B11D20934D028093540290935502A093FF
:100B10005602B093570280914E0290914F02A091DD
:100B20005002B09151020196A11DB11D80934E0259
:100B300090934F02A0935002B0935102BF91AF9196
:100B40009F918F913F912F910F900FBE0F901F900B
:100B500018951F920F920FB60F9211242F933F9367
:100B60004F935F936F937F938F939F93AF93BF93B5
:100B7000EF93FF9388E592E00E94F201FF91EF91DD
:100B8000BF91AF919F918F917F916F915F914F91A5
:100B90003F912F910F900FBE0F901F9018951F92AD
:100BA0000F920FB60F9211242F938F939F93EF9371
:100BB000FF93E0916802F09169028081E0916E02FA
:100BC000F0916F0282FD12C09081809171028F5F5F
:100BD0008F7320917202821751F0E0917102F0E060
:100BE000E85AFD4F958F8093710201C08081FF917B
:100BF000EF919F918F912F910F900FBE0F901F90AB
:100C00001895E8E5F2E01382128288EE93E0A0E006
:100C1000B0E084839583A683B7838EE091E09183CF
:100C2000808385EC90E09587848784EC90E09787BB
:100C3000868780EC90E0918B808B81EC90E0938BA9
:100C4000828B82EC90E0958B848B86EC90E0978B86
:100C5000868B118E128E138E148E6EE171E08BEFE7
:100C600092E00E94C5046EE171E085EF92E00C9481
:100C7000C504CF93DF9300D000D000D0CDB7DEB74E
:100C8000789484B5826084BD84B5816084BD85B567
:100C9000826085BD85B5816085BD80916E00816073
:100CA00080936E0010928100809181008260809319
:100CB000810080918100816080938100809180001B
:100CC0008160809380008091B10084608093B10046
:100CD0008091B00081608093B00080917A00846040
:100CE00080937A0080917A00826080937A0080916C
:100CF0007A00816080937A0080917A008068809386
:100D00007A001092C100E0916802F091690282E0DD
:100D10008083E0916402F09165021082E0916602A6
:100D2000F09167028FEC808310927002E0916C0268
:100D3000F0916D0286E08083E0916A02F0916B028F
:100D4000808180618083E0916A02F0916B028081F2
:100D500088608083E0916A02F0916B0280818068F4
:100D60008083E0916A02F0916B0280818F7D8083A5
:100D700028E030E0F901EE55FF4F4491F901E257C8
:100D8000FF4F8491882399F090E0880F991FFC0110
:100D9000E658FF4FA591B491FC01EC57FF4F8591A8
:100DA00094918FB7F894EC91E42BEC938FBF2F5F65
:100DB0003F4F2B303105F1F680E480937C00809129
:100DC0007A00806480937A0080917A0086FDFCCF5F
:100DD000609178008091790070E0782B072E000CEC
:100DE000880B990B611571058105910511F00E9421
:100DF000900817E001E088E0E82E96E0F92E25E063
:100E0000D22E34E0C32E43E0B42E52E0A52EE09162
:100E10004C028E2FEE0F990BAA0BBB0B893091055C
:100E200008F0D6C0FC01EC5CFF4F0C94680987E326
:100E300091E00E94CA0282E491E00E94CA020E94EC
:100E4000DA0461E571E0CE0101960E94C504CE018D
:100E500001960E94FE02982E89819A810E94060ABC
:100E6000992029F000934C0283E591E09EC01093F5
:100E70004C0286E691E0A4C089E791E00E94CA0294
:100E800083E090E00E94B8030E94DA040E943803D5
:100E9000882319F0A0924C0249C010934C028EE9AD
:100EA00091E08EC08AEA91E00E94CA0285E090E05B
:100EB0000E94B8030E94DA040E943803882369F371
:100EC000B0924C0233C086EB91E00E94CA0285E0EA
:100ED00090E00E94B8030E94DA040E94380388233D
:100EE000E1F2C0924C0222C082EC91E00E94CA0260
:100EF00085E090E00E94B8030E94DA040E94380363
:100F0000882359F2D0924C0211C08EEC91E00E94DD
:100F1000CA0285E090E00E94B8030E94DA040E94B1
:100F20003803882309F4B9CFF0924C0285E891E0A8
:100F30003CC08AED91E00E94CA0285E090E00E94E8
:100F4000B8030E94DA040E943803882309F4A5CF6D
:100F5000F0924C0286EE91E028C087E092E00E9479
:100F6000CA0265E070E084E690E00E948D02E092A3
:100F70004C022EC081E192E00E94CA020E94DA0473
:100F800061E571E0CE0101960E94C504CE01019693
:100F90000E94FE02982E89819A810E94060A992059
:100FA00059F000934C0288E292E00E94CA0263E08A
:100FB00070E088EE93E00AC010934C028AE392E05E
:100FC0000E94CA0265E070E08CE291E00E948D020E
:100FD0000E9483021CCF8091F5029091F6020E943C
:100FE000060A8091FB029091FC020C94060A8F92F3
:100FF0009F92AF92BF92CF92DF92EF92FF92CF93E8
:10100000DF93EC01688179818A819B81611571058B
:101010008105910521F464E279ED8BE597E02DE1FE
:1010200033EF41E050E00E94CE0849015A019B0194
:10103000AC01A7EAB1E40E94ED086B017C01ACEEC3
:10104000B4EFA50194010E94FB08DC01CB018C0DDB
:101050009D1DAE1DBF1DB7FF03C00197A109B0487C
:1010600088839983AA83BB83BC01CD019F77DF91DD
:10107000CF91FF90EF90DF90CF90BF90AF909F9077
:101080008F9008958F929F92AF92BF92CF92DF92EE
:10109000EF92FF9260910001709101018091020135
:1010A00090910301611571058105910521F464E2B8
:1010B00079ED8BE597E02DE133EF41E050E00E94C0
:1010C000CE0849015A019B01AC01A7EAB1E40E9494
:1010D000ED086B017C01ACEEB4EFA50194010E9418
:1010E000FB08DC01CB018C0D9D1DAE1DBF1DB7FFA4
:1010F00003C00197A109B0488093000190930101BA
:10110000A0930201B0930301BC01CD019F77FF9032
:10111000EF90DF90CF90BF90AF909F908F90089509
:101120006093000170930101809302019093030189
:101130000895BB274A3031F4992322F4BDE29095FB
:1011400081959F4F0C94A508BB27FB015527AA2723
:10115000880F991FAA1FA41710F0A41B8395505144
:10116000B9F7A05DAA3308F0A95DA193009779F7BC
:10117000B111B1931192CB010C94BE08DC01FC01BA
:10118000672F71917723E1F7329704C07C916D93BB
:1011900070836291AE17BF07C8F30895052E97FBC1
:1011A0001EF400940E94E50857FD07D00E943709FD
:1011B00007FC03D04EF40C94E5085095409530950B
:1011C00021953F4F4F4F5F4F0895909580957095B3
:1011D00061957F4F8F4F9F4F08950E945909A59F9A
:1011E000900DB49F900DA49F800D911D1124089522
:1011F000B7FF0C94ED080E94ED08821B930B089535
:101200002F923F924F925F926F927F928F929F9216
:10121000AF92BF92CF92DF92EF92FF920F931F9304
:10122000CF93DF93CDB7DEB7CA1BDB0B0FB6F894B5
:10123000DEBF0FBECDBF09942A88398848885F84F5
:101240006E847D848C849B84AA84B984C884DF8066
:10125000EE80FD800C811B81AA81B981CE0FD11D4A
:101260000FB6F894DEBF0FBECDBFED010895A1E229
:101270001A2EAA1BBB1BFD010DC0AA1FBB1FEE1F10
:10128000FF1FA217B307E407F50720F0A21BB30B5B
:10129000E40BF50B661F771F881F991F1A9469F7D7
:1012A00060957095809590959B01AC01BD01CF0133
:1012B0000895A29FB001B39FC001A39F700D811D2F
:1012C0001124911DB29F700D811D1124911D08954F
:1012D000EE0FFF1F0590F491E02D09940F931F93DB
:1012E000CF93DF938230910510F482E090E0E0919B
:1012F0000303F091040320E030E0A0E0B0E0309779
:1013000019F1408151810281138148175907C8F0B2
:101310008417950769F4109731F012960C93129781
:1013200013961C9327C0009303031093040322C059
:101330002115310519F04217530718F49A01BD0120
:10134000EF01DF01F801DBCF21153105F9F0281B92
:10135000390B2430310580F48A819B816115710538
:1013600021F0FB019383828304C090930403809354
:101370000303FE01329644C0FE01E20FF31F819386
:10138000919322503109398328833AC02091010377
:1013900030910203232B41F4209106013091070183
:1013A0003093020320930103209104013091050141
:1013B0002115310541F42DB73EB7409108015091F8
:1013C0000901241B350BE0910103F0910203E217A0
:1013D000F307A0F42E1B3F0B2817390778F0AC0158
:1013E0004E5F5F4F2417350748F04E0F5F1F509335
:1013F0000203409301038193919302C0E0E0F0E087
:10140000CF01DF91CF911F910F910895CF93DF937B
:10141000009709F481C0FC01329713821282A091D7
:101420000303B0910403109781F420813181820F6E
:10143000931F20910103309102032817390751F5BA
:10144000F0930203E093010367C0ED0120E030E078
:10145000CE17DF0740F44A815B819E01411551059B
:10146000F1F0EA01F5CFD383C28340815181840F2B
:10147000951FC817D90759F488819981840F951F42
:101480000296918380838A819B8193838283211535
:10149000310529F4F0930403E09303033DC0E9010F
:1014A000FB83EA8349915991C40FD51FEC17FD07BF
:1014B00061F480819181840F951F0296E9019983DF
:1014C0008883828193819B838A83E0E0F0E0129697
:1014D0008D919C911397009719F0FD01DC01F7CFD6
:1014E0008D919C9111979D012E5F3F4F820F931F0D
:1014F00020910103309102032817390769F43097CE
:1015000029F4109204031092030302C01382128282
:10151000B0930203A0930103DF91CF910895A0E05F
:10152000B0E0E5E9FAE00C940409EC01009721F43D
:10153000CB010E946E09B4C0FC01E60FF71F9C01AD
:1015400022503109E217F30708F4A8C0D9010D9120
:101550001C91119706171707B0F00530110508F414
:101560009BC0C80104978617970708F495C00250DE
:101570001109061B170B019311936D937C93CF01F7
:101580000E94060A89C05B01A01AB10A4C01800EB4
:10159000911EA0910303B0910403612C712CE12CE6
:1015A000F12C109709F446C08D919C911197A815C4
:1015B000B905B1F56C0142E0C40ED11CCA14DB04BC
:1015C00078F14C018A189B08640142E0C40ED11CDA
:1015D0001296BC9012971396AC91B5E0CB16D1043D
:1015E00040F0B282A38391828082D9016D937C9373
:1015F00009C00E5F1F4F800F911FF90191838083F7
:10160000EB2DFA2FE114F10431F0D7011396FC937E
:10161000EE93129741C0F0930403E09303033CC0A0
:101620006816790608F43C017D0112960D90BC9174
:10163000A02DB7CF809101039091020388169906DF
:10164000E1F466167706C8F48091040190910501D3
:10165000009741F48DB79EB7409108015091090160
:10166000841B950BE817F907C8F4F0930203E09385
:101670000103F901718360830FC0CB010E946E09E1
:101680007C01009759F0A801BE010E94620BCE01B7
:101690000E94060AC70104C0CE0102C080E090E0AB
:1016A000CDB7DEB7EEE00C94200981E090E0F8942D
:1016B0000C947B0B9111089581548A5108F4805E3B
:1016C000855A0895FB01DC0102C001900D92415042
:1016D0005040D8F70895FB01DC018D9101908019ED
:1016E0000110D9F3990B0895FB01DC0101900D92D3
:1016F0000020E1F7089510E0C6E6D0E004C0FE0146
:101700000E9468092196C736D107C9F7F894FFCF20
:10171000010000000000050380000000000014022A
:101720003E016B016102DC017A01CE010D0A002A43
:1017300020496E73657261207375612072657370E4
:101740006F737461202A002A20494E4943494F2073
:101750002A00436F6D656361723F2028732F6E29E5
:101760000073004A6F676F20636F6D65C3A7616E7A
:10177000646F2E2E2E004A6F676F206EC3A36F20FA
:10178000696E69636961646F002A204E6976656CD1
:101790002031202A005061726162656E73212070D1
:1017A000726F78696D6F206E6976656C2E00457278
:1017B000726F6F6F6F6F212121002A204E6976654D
:1017C0006C2032202A002A204E6976656C20332056
:1017D0002A002A204E6976656C2034202A002A20AF
:1017E0004E6976656C2035202A002A204E69766580
:1017F0006C2036202A005061726162656E73212070
:10180000566F63C3AA2066696E616C697A6F752032
:101810006F2067616D650047616D65204F76657269
:10182000006A6F676172206E6F76616D656E7465B8
:101830003F2028732F6E29004A6F676F20636F6DFA
:101840006563616E646F2E2E2E004A6F676F206E87
:0C185000616F20696E69636961646F005C
:00000001FF
